:020000040800F2
:10000000C80600209D0100082F30000825230008A5
:100010002D300008110700084B36000800000000D2
:100020000000000000000000000000009D310008FA
:10003000E907000800000000653000089F31000853
:10004000B7010008B7010008B7010008B7010008B0
:10005000B7010008B7010008B7010008B7010008A0
:10006000B7010008B7010008B7010008150700082C
:10007000B7010008B7010008B7010008B701000880
:10008000210700082D070008B7010008B701000884
:10009000B7010008B7010008B7010008B701000860
:1000A000B7010008B7010008B7010008B701000850
:1000B000B7010008B7010008B701000829230008AC
:1000C000B7010008B7010008B7010008B701000830
:1000D000B7010008B7010008B7010008B701000820
:1000E000B7010008B7010008B7010008B701000810
:1000F000B7010008B7010008B70100083907000878
:10010000B7010008B7010008B7010008B7010008EF
:10011000B701000819330008B7010008453200088C
:10012000B7010008B7010008B7010008B7010008CF
:10013000B7010008B7010008B7010008B7010008BF
:10014000B7010008B7010008B7010008B7010008AF
:10015000B7010008B7010008B7010008B70100089F
:10016000B7010008B7010008B7010008B70100088F
:10017000B7010008B7010008B7010008000000003F
:10018000B7010008B7010008DFF80CD000F0AEFAA4
:1001900000480047B9380008C806002006488047D4
:1001A00006480047FEE7FEE7FEE7FEE7FEE7FEE75C
:1001B000FEE7FEE7FEE7FEE72932000889010008B6
:1001C0002DE9F05F0546002092469B46884606468C
:1001D000814640241BE0284641464746224600F01F
:1001E00006FA53465A46C01A914110D31146184692
:1001F000224600F0EDF92D1A67EB01084F46224622
:100200000120002100F0E4F917EB00094E41201E07
:10021000A4F10104DFDC484631462A464346BDE8E6
:10022000F09FD2B201E000F8012B491EFBD27047CB
:100230000022F6E710B513460A4604461946FFF7B2
:10024000F0FF204610BD2DE9FE4F804681EA0300F5
:10025000C00F0C46009021F0004123F00045B8EBA0
:100260000200A94105D24046214690461C460B4655
:10027000024623F00040104347D0270DC7F30A0081
:10028000C3F30A510290401A019040286BDAC3F37D
:10029000130040F4801B0098924620B10023D2EB5B
:1002A000030A63EB0B0B01985946C0F1400250461C
:1002B00000F08EF906460D4650465946019A00F068
:1002C000A6F910EB08006141002487EA115284EA84
:1002D000E7731A4340D0009A62B3019A012A4FEAA9
:1002E000075215DC001B61EB02014FF0004202EAED
:1002F0000752CDE90042001C41F5801132462B46E1
:1003000000F0A6F903B0BDE8F08F40462146F9E7BA
:10031000001B61EB0201001C41F5801300185B41DA
:100320002018A2F5001747EB030140EAD570B61973
:100330006D4111E06D084FEA360645EAC0754FEA97
:100340000752001B61EB0201001C41F580114908B6
:100350004FEA30000019514132462B4603B0BDE848
:10036000F04F00F066B90098012240000023D0EB66
:10037000020263EBE073009821464FEAE074B8EBA9
:10038000000061EB0401E9E783F000435BE781F0E3
:10039000004158E72DE9FE4F81EA030404F00044D0
:1003A00021F0004100944FF0000B23F0004350EA8D
:1003B00001045ED052EA03045BD0C3F30A54C1F3D4
:1003C0000A552C44A4F2F3340194A0FB0254C1F367
:1003D000130141F48011C3F3130343F4801301FBB1
:1003E000024400FB034E840A970A44EA815447EA18
:1003F0008357A4FB076802958D0A05FB07854FEA22
:10040000932C04FB0C542705029D4FEA065847EA3B
:100410001637B5EB08056EEB070C870E920E47EA10
:10042000811742EA8312A7FB0201B6EB0B0164EBD2
:1004300000042B0D43EA0C335E1844EB1C50DA46E3
:100440005146E7FB0201C5F313044FEA0B3343EABD
:1004500014534FEA0432019C43EA0603A4F10C044E
:100460000294009CCDE900B400F0F2F803B0BDE8BE
:10047000F08F00200146F9E72DE9F04D81EA0304F1
:1004800004F0004B21F0004514464FF0000A23F021
:10049000004150EA050220D054EA01021DD0C5F304
:1004A0000A570246C5F31303C1F31300C1F30A56FA
:1004B00040F4801543F48013A7EB0608101BD646C2
:1004C00008F2FD3873EB050002D308F1010801E0E2
:1004D00092185B41B8F1000F03DA00200146BDE835
:1004E000F08D00204FF48011064684460EE0171B65
:1004F00073EB050705D3121B63EB050306434CEAB8
:10050000010C49084FEA300092185B4150EA01079C
:10051000EDD152EA030012D082EA040083EA050119
:10052000084305D0101BAB4106D20122002306E090
:1005300000224FF0004302E06FF0010253101AEB6B
:1005400006004CEB085110EB0A0041EB0B01BDE833
:10055000F04D00F06EB80EB540F23341029100212B
:10056000CDE900110A460B4600F072F803B000BD59
:1005700030B5041E71F1000404DB4FF0004440422A
:1005800064EB0101141E73F1000405DB1C464FF0FF
:100590000043524263EB04038B4208BF824230BDEA
:1005A00030B5041E71F1000404DB4FF000444042FA
:1005B00064EB0101141E73F1000405DB1C464FF0CF
:1005C0000043524263EB0403994208BF904230BD9E
:1005D000202A04DB203A00FA02F100207047914003
:1005E000C2F1200320FA03F3194390407047202AF8
:1005F00004DB203A21FA02F00021704721FA02F3CD
:10060000D040C2F120029140084319467047202A89
:1006100006DBCB17203A41FA02F043EAE07306E02A
:1006200041FA02F3D040C2F120029140084319463A
:10063000704710B5141E73F1000408DA401C41F134
:10064000000192185B411A4301D120F0010010BD56
:100650002DE9F04D92469B4611B1B1FA81F202E0CC
:10066000B0FA80F220329046FFF7B2FF04460F4600
:1006700040EA0A0041EA0B0153465A46084313D0A8
:10068000114653EA010019D0C8F140025046FFF765
:10069000AEFF05460E46504659464246FFF798FFC4
:1006A000084305D0012004E020463946BDE8F08D1E
:1006B0000020054346EAE0762C4337430A98630559
:1006C000E40AA0EB08000022FD0A44EA47540A307D
:1006D00002D500200146E9E7010510196941DDE96D
:1006E000084500196941BDE8F04DA2E7064C074DE9
:1006F00006E0E06840F0010394E8070098471034F2
:10070000AC42F6D3FFF744FD0C3A00082C3A00083F
:10071000FEE70000014800F081B800000802002058
:10072000014800F07BB8000048010020014800F0BB
:1007300075B80000A8010020014800F06FB8000063
:100740006802002001681823CAB2103AB2FBF3F223
:10075000054B6FF30901032A9B5CC36500D9091D92
:100760008165084670470000EC39000810B5014665
:1007700000208B698A6A4FF0C07453B1B3F5005FF3
:1007800015D072B1012A0CD0022A0AD0032A09D14D
:1007900004E01AB1012A06D0022A03D1C96AC901AC
:1007A00000D5012010BDC96AA142FAD010BD002AAF
:1007B000F7D0012AF2D0022AF3D0032AF3D010BDD9
:1007C00030B50468256825F48025256004686360D9
:1007D0008368402B036803D099600068C26030BD15
:1007E0009A600068C16030BD7047704790F835105E
:1007F000022903D08021416501207047052180F83E
:1008000035100068016821F0010101600020704787
:10081000406D704790F83500704700002DE9F843AF
:1008200004464FF00009CDF8009063484FF416518C
:10083000A56D0068B0FBF1F72E6894F85C100820F5
:1008400000FA01F131420FD021680A6852070BD536
:100850000A6822F004020A6094F85C108840A860DC
:10086000606D40F00100606594F85C104FF0010885
:1008700008FA01F0304208D021684969090604D518
:10088000A860606D40F00200606594F85C10042080
:100890008840304208D021680968890704D5A860DB
:1008A000606D40F00400606594F85C101020884092
:1008B000304218D021680968090714D5A86020685B
:1008C0000168490304D50068000308D5A16C07E05E
:1008D0000168C90503D4016821F008010160216C99
:1008E00009B12046884794F85C10202088403042A7
:1008F00031D021680968C9062DD5A86094F8350063
:1009000005282068016806D0490347D50068000320
:100910001DD4616C1CE021F0160101602068416962
:1009200021F080014161206C08B9A06C20B12068E1
:10093000016821F00801016094F85C103F208840B4
:10094000A86084F8349084F83580216D1FE0E16B55
:1009500009B120468847606D00282BD0606DC00724
:1009600014D0052084F835002068016821F00101C9
:1009700001600098401C0090B84203D820680068CD
:10098000C007F6D184F8349084F83580E16C0029F2
:1009900010D001B02046BDE8F04308470168C90502
:1009A000D5D4016821F01001016084F8349084F8F6
:1009B0003580CCE7BDE8F883640000202DE9F041E4
:1009C000044600F097F906465CB1002584F83450DF
:1009D000022084F835002068016821F001010160DF
:1009E0000DE00120BDE8F08100F084F9801B0528AE
:1009F00005D920206065032084F83500F2E72068DF
:100A00000068C007F0D12268116820480140D4E98D
:100A100001031843D4E90336334318436369184389
:100A2000A3691843E3691843236A18430843616ABA
:100A3000042903D1D4E90B1319430843106020683B
:100A40004069666A20F0070130460E4301270428FA
:100A50000CD1A06A0643E06A40B12046FFF786FE4B
:100A600020B14020606584F83570BAE7206846619F
:100A70002046FFF767FE94F85C203F21914081609B
:100A8000656584F835700020ACE700003F8010F009
:100A90002DE9F0410446866D90F8340000250128C8
:100AA0000DD0012084F8340094F835700020012F17
:100AB00007D084F8340002252846BDE8F0810220E2
:100AC000FBE7022784F8357060652046FFF778FE63
:100AD00094F85C103F208840B0602068016841F0C5
:100AE00016010160206C20B12068016841F0080106
:100AF00001602068016841F001010160DCE700004D
:100B000070B5044600F0F6F80546601C02D00448B3
:100B10000078044400F0EEF8401BA042FAD370BD08
:100B2000580000202DE9F84F00224FF0010803255E
:100B30004FF00F0E0B6808FA02F42340A3426ED167
:100B40004E68012E05D0022E03D0112E01D0122E98
:100B500012D186684FEA420C05FA0CF7BE43CF6803
:100B600007FA0CF7374387604668A6430C79C4F34D
:100B70000014944034434460C668570005FA07FCEB
:100B80008C6826EA0C06BC403443C4604C68022CD6
:100B900001D0122C13D1D40800EB8404A346D4F85E
:100BA000209054074FEAD46A0EFA0AF629EA060999
:100BB0000E6906FA0AF646EA0906CBF820600668CE
:100BC0000C7926EA0C0604F00304BC4034430460AC
:100BD0004C68E40065D5364C266846F480462660AD
:100BE000246822F0030604F480440094314C344419
:100BF000A446D4F808489607370F0EFA07F6B44310
:100C00002D4EB04201D1002624E02C4EB04201D13D
:100C100001261FE02A4EB04202D102261AE040E02F
:100C2000284EB04201D1032614E0274EB04201D134
:100C300004260FE0254EB04201D105260AE0244EDD
:100C4000B04201D1062605E0224EB04201D107266E
:100C500000E00826BE402643CCF808681E4E3468E3
:100C60004F689C43FF0300D51C4334601A4C241D7D
:100C700026684F689E43BF0300D51E432660164E6C
:100C8000083634684F689C43FF0200D51C4334602B
:100C9000114E0C3634684F689C43BF0200D51C438C
:100CA0003460521C102AFFF445AFBDE8F88F0000F5
:100CB000443802400030014000000240000402407D
:100CC00000080240000C02400010024000140240E4
:100CD00000180240001C0240003C0140426931EA19
:100CE000020200D10904816170470AB18161704735
:100CF0000904FBE7014880687047000058000020A5
:100D0000704770472DE9F041026800245168C56AB8
:100D100090F83E3090F83D60102B1CD0402B1AD03C
:100D2000036C002B7ED053694FF02805DB439F07EF
:100D300079D4CF43BF0576D4016C01B1946990F8A2
:100D40003D3000219D430B467FD0C91E516180F884
:100D50003C30BDE8F081946953694FF42A07DB43C6
:100D60005FEAC37C4FF02A4604D0BD42F1D0B542C1
:100D7000EFD010E0CD43AD050DD4C16AB94201D129
:100D8000012103E0C16AB14201D10821C162BDE87D
:100D9000F04101F0ABBE1D0716D4CD43AD0513D411
:100DA000416CC9B21161416B11B9826B002AD0D07C
:100DB000C96B19B9816BC96B0029CAD00068416839
:100DC00041F400614160C4E79D0706D4CD43AD0501
:100DD00003D4BDE8F04101F0FDBDE443526864076F
:100DE0004FEA025215D4002AB3DB1A0608D4CA43CC
:100DF000520505D45A0705D5BDE8F04101F08EBD76
:100E00005A07A6D4C9438905A3D4BDE8F04101F02F
:100E10003BBD002A9DDB5A060CD4CA43520509D4B7
:100E20005A0702E00FE023E00FE005D5BDE8F041EE
:100E300001F092BC5A078CD4C943890589D4BDE816
:100E4000F04101F020BC94696DE7556825F4806598
:100E50005560E243540700D50121120601D582896D
:100E600000E0028B80F83C3092B2FFF74AFF70E757
:100E7000DC0606D4CC43A40503D4BDE8F04101F060
:100E8000B1BE212E27D0292E25D05C0655D4CC43C7
:100E9000640552D45B0752D590F83D10438D002B6A
:100EA00091D01269436A1A70426A521C4262428DA2
:100EB000521E4285428D002A85D12A29D7D1016848
:100EC0004A6822F480624A602221016380F83D5022
:100ED00000F07EFB3DE71C0623D4CC43640520D400
:100EE0005B0720D590F83D10438D002BBFD0436A9F
:100EF0001B781361426A521C4262428D521E428527
:100F0000428D002AB3D12929B1D101684A6822F45F
:100F100080624A602121016380F83D5000F059FB56
:100F200017E75B07A3D4C9438905A0D4418D0029E5
:100F30009DD0416A097811610AE05B0797D4C943E3
:100F4000890594D4418D002991D01169426A1170AC
:100F5000416A491C4162418D491E4185F9E670474D
:100F600070B5040025D094F83D00002520B984F820
:100F70003C50204600F0B6FA242084F83D0020685A
:100F8000016821F0010101602068016841F400411D
:100F900001602068016821F40041016000F060FCFC
:100FA0004D4A6168914201D84C4900E04C49884261
:100FB00001D2012070BD4B492368B0FBF1F15E689E
:100FC00026F03F060E435E606368934206D94FF4F5
:100FD000967359434FF47A73B1FBF3F12368491CBC
:100FE0001E6A26F03F06314319626168914210D8AB
:100FF0004900401EB0FBF1F2521CC2F30B02042A5E
:1010000001D2042022E0B0FBF1F0401CC0F30B0041
:101010001CE0A268F2B301EBC10303EB0116431E0F
:10102000B3FBF6F35B1C43F480431B0549D092B33A
:1010300001EBC10202EB0111401EB0FBF1F0401CBC
:10104000C0F30B0040F4804040F400402168CA69BE
:101050004CF6FF739A431043C861D4E9071001436B
:101060002068026822F0C00211430160D4E9030144
:1010700001432068826848F2FF339A43114381603C
:10108000D4E9050108432168CA6822F0FF02104331
:10109000C86001E00EE016E02068016841F001013F
:1010A00001602564202084F83D00256384F83E50CB
:1010B000002070BD01EB4106431EB3FBF6F35B1C41
:1010C000B3E70120C2E701EB4101401EB0FBF1F0A4
:1010D000401CC0F30B00B7E7A086010080841E000F
:1010E00000093D0040420F0070470000044A0168BB
:1010F0001268914202D1806BFFF778BB7047000005
:1011000068000020044A01681268914202D1406BD5
:10111000FFF76CBB7047000068000020F8B50025A1
:101120000446009590F83D0020287DD14A4846F2BB
:10113000A8160068B0FBF6F000EBC00606EB001046
:10114000202600900098401E009010D020688069F2
:10115000C0438007F6D594F83C00012879D00120DF
:1011600084F83C0020680768FF070AD00DE044F8C7
:10117000305F6673A573206940F0200020612573FD
:1011800039E0076847F0010707602068076827F41F
:1011900000670760222084F83D00102084F83E009C
:1011A000256462626385608D20852C48E0626164FD
:1011B000208DD0B3A16B2A48C863A16B2948C864AD
:1011C000A06B0564A06B4564A06B8564A06B05658E
:1011D0002168238D1031626AA06BFFF759FC60B162
:1011E00084F83D6084F83E5054F8400F40F0100001
:1011F00044F8040925700120F8BD2068016841F415
:10120000806101602068016841F48071016084F8A8
:101210003C502068416841F4407141602068416859
:1012200041F40061416001E013E001E00020F8BDFD
:101230002068016841F4806101602068016841F420
:101240008071016084F83C502068416841F4E0619D
:10125000E8E70220F8BD0000640000200000FFFF66
:10126000FB230008BB2300082DE9F84F1F469046DA
:101270008A460446DDF82890FFF73CFD054694F8C1
:101280003D0020287FD119230122404920460095A6
:1012900001F07CFD002876D194F83C00012872D042
:1012A000012084F83C0020680168C90703D1016867
:1012B00041F0010101602068016821F400610160D2
:1012C000212084F83D00102084F83E00002626648A
:1012D000C4F824806785608D20852D48E0622B4608
:1012E0004A465146204601F081FA90B9206841698A
:1012F0008069009036E02A464946204601F0C5FD47
:1013000050B1206C042804D12068016841F40071B8
:1013100001600120BDE8F88F606A216800780861EB
:10132000606A401C6062618D491E6185218D491E85
:1013300089B2218522685369DB435B070BD451B125
:1013400000781061606A401C6062608D401E60859C
:10135000208D401E20852A464946204601F0F0FC9B
:101360000028CED1208D0028C5D154F83D0B01684E
:1013700041F400710160202004F81E09E6776677C9
:101380000020C7E7FFE70220C4E7000002001000CA
:101390000000FFFFF8B500250446009590F83D00D9
:1013A00020287DD14A4846F2A8160068B0FBF6F026
:1013B00000EBC00606EB0010202600900098401EAF
:1013C000009010D020688069C0438007F6D594F85B
:1013D0003C00012879D0012084F83C00206807688F
:1013E000FF070AD00DE044F8305F6673A5732069EB
:1013F00040F020002061257339E0076847F00107BD
:1014000007602068076827F400670760212084F8D8
:101410003D00102084F83E00256462626385608D83
:1014200020852C48E0626164208DD0B3616B2A482E
:10143000C863616B2948C864606B0564606B456470
:10144000606B8564606B05652268238D1032616A6C
:10145000606BFFF71DFB60B184F83D6084F83E507F
:1014600054F8400F40F0100044F8040925700120A2
:10147000F8BD2068016841F480610160206801685E
:1014800041F48071016084F83C502068416841F467
:10149000407141602068416841F40061416001E0B1
:1014A00013E001E00020F8BD2068016841F480618C
:1014B00001602068016841F48071016084F83C504B
:1014C0002068416841F4E061E8E70220F8BD0000CF
:1014D000640000200000FFFFFB230008BB2300087E
:1014E000704770472DE9F04387B0064614216846DF
:1014F000FEF79EFE30493068884259D12F480025BA
:10150000016841F0020101600068694600F00200D4
:101510000590C0200090122001900120029003202D
:101520000390042004902648FFF7FCFA234810306B
:10153000016841F4001101600068234C00F40010C0
:101540000590204820604FF00077C4E901754FF402
:101550008068C4E903584FF480796561C4E906598D
:10156000256220466562FFF729FA08B1FFF73DF9C9
:10157000B463A6631348154C1830E4E80207402012
:10158000A4E82101114844F81459C4E90659256218
:101590006562FFF713FA08B1FFF727F974630022B9
:1015A00011461F20A66300F07DF81F2000F06CF8A4
:1015B00007B0BDE8F083000000540040303802401E
:1015C000000402408860024048010020A801002079
:1015D0007047704702488168027811448160704703
:1015E000580000200B4810B5016841F400710160FB
:1015F000016841F480610160016841F4807101601B
:10160000032000F06FF8002000F006F800F024F846
:10161000002010BD003C024070B50D4D04464FF453
:101620007A712878B1FBF0F00A490968B1FBF0F053
:1016300000F014FB48B9102C07D200222146501E9E
:1016400000F030F800206C6070BD012070BD00001B
:1016500058000020640000200A4808B5016841F4E1
:1016600080410160006800F4804000900548001F40
:10167000016841F080510160006800F080500090E6
:1016800008BD000044380240002809DB00F01F02BA
:10169000012191404009800000F1E020C0F80011D4
:1016A00070470000F0B40E4B1B680C46C3F30223D6
:1016B000C3F10705042D00D90425191D072901D2FE
:1016C000002300E0DB1E012606FA05F1491E214039
:1016D00099409E40761E16403143F0BC01F0B6BFE3
:1016E0000CED00E0064900F0070208684FF6FF0322
:1016F000184040EA0220034A104308607047000087
:101700000CED00E00000FA05BFF34F8F05480168BB
:10171000054A01F4E06111430160BFF34F8F00BF40
:10172000FDE700000CED00E00400FA052DE9F047AC
:101730000E46050065D0DFF81481D8F80000F7B236
:1017400000F00F00B04207D288F80070D8F800000F
:1017500000F00F00B04254D128683D4C810712D5EB
:10176000400703D5206840F4E05020602878000747
:1017700003D5206840F4604020602068A96820F00C
:10178000F000084320602878C0072DD030496868F1
:101790000839012812D0022813D0032811D0096873
:1017A000890700292DDA216821F003010143216016
:1017B000FFF7A0FA814641F2883A0EE009688903F2
:1017C000EFE709688901ECE7FFF794FAA0EB09015C
:1017D000514502D90320BDE8F0872068696800F010
:1017E0000C00B0EB810FEFD1D8F80010404601F0AB
:1017F0000F01B14207D90770006800F00F00B04236
:1018000001D00120E7E72878400705D52068E9687E
:1018100020F4E050084320602878000706D52068AF
:10182000296920F4604040EAC100206000F038F8E7
:101830002168084AC1F30311515CC8400649086099
:1018400006480068FFF7E8FE0020C4E7003C0240BD
:1018500008380240F4390008640000205C000020D1
:101860000448054900680968044AC1F38221515CB3
:10187000C84070476400002008380240043A00085D
:101880000448054900680968044AC1F34231515CC3
:10189000C84070476400002008380240043A00083D
:1018A000154810B5006810F00C02144813D0411010
:1018B000042A0FD0082A0ED10F4C241F2268236857
:1018C00002F03F025B0207D52068C0F38810A0FB3E
:1018D000010106E0084610BD2168C1F38811A1FB93
:1018E00000010023FEF76CFC2168C1F30141491C93
:1018F0004900B0FBF1F010BD083802400024F400AC
:101900002DE9F84F04006ED02078DFF83C93C00733
:10191000A9F104054AD009F104000168C1F381016D
:10192000012908D00068C0F3810002280AD1D9F843
:101930000000400206D52868800337D5606800287B
:10194000E1D033E06068B0F5803F10D0B0F5A02F53
:10195000286810D020F480302860286820F4802087
:1019600028606068A8B1FFF7C5F906460DE0286851
:1019700040F48030F4E740F480202860F7E700BFAF
:10198000FFF7B8F9801B642873D828688003F7D55F
:101990000CE0FFF7AFF9064605E000BFFFF7AAF934
:1019A000801B6428F0D828688003F7D42078DFF8FB
:1019B0009C8280074FF0000A3ED5A348001D0168B5
:1019C00011F00C0F08D00068C0F3810002280BD181
:1019D000D9F80000400207D42868800716D5E068CF
:1019E000012800D112E02BE1E068B8B10120C8F86D
:1019F0000000FFF77FF9064605E000BFFFF77AF920
:101A0000801B0228C0D828688007F7D5286821697C
:101A100020F0F80040EAC10028600DE0C8F800A0FE
:101A2000FFF768F9064604E0FFF764F9801B022817
:101A30001FD828688007F7D42078000722D5824E67
:101A400083486169703671B101210160FFF752F975
:101A5000074604E0FFF74EF9C01B022809D830689A
:101A60008007F7D50EE0C0F800A0FFF743F907465E
:101A700005E082E0FFF73EF9C01B02287DD8306800
:101A80008007F7D42078400768D5DFF8BCB100277D
:101A90000BF13C0BDBF80000C0000BD4DBF80010AE
:101AA00041F08051CBF80010DBF80000012700F076
:101AB00080500090674E3068C00510D4306840F404
:101AC00080703060FFF716F9009005E0FFF712F91B
:101AD0000099401A022850D83068C005F6D55A4EF1
:101AE000A0686C3601280FD00528306810D020F08F
:101AF00001003060306820F004003060A068B8B1A8
:101B0000FFF7F8F800900FE0306840F00100F4E7CC
:101B100040F004003060F7E7FFF7ECF80099411A55
:101B200041F28830814266D830688007F4D50EE0F3
:101B3000FFF7E0F8009007E0FFF7DCF80099411AA2
:101B400041F28830814256D830688007F4D42FB1F2
:101B5000DBF8001021F08051CBF80010A069C8B369
:101B60003949091D0968C1F3810102294AD00228B7
:101B7000504607D0C8F8600000E03CE0FFF7BAF834
:101B800004463BE04746C8F86000FFF7B3F8064656
:101B900005E000BFFFF7AEF8801B02282BD82868AD
:101BA0008001F7D4D4E907010843A16A2A4A490809
:101BB00002EB0141626A41EA8211084394F82C1059
:101BC00040EA0161C9F8001001203866FFF792F879
:101BD000044606E036E000BFFFF78CF8001B022841
:101BE00009D828688001F7D52CE000BFFFF782F8FC
:101BF000001B022802D90320BDE8F88F2868800165
:101C0000F4D41FE00128F7D0D9F80000E26900F40D
:101C10008001914214D1226A00F03F0191420FD11C
:101C200047F6C071626A0140914209D1A26A00F48C
:101C30004031914204D1E16A00F07060884201D0E5
:101C40000120D9E70020D7E70438024000004742CE
:101C5000800E4742007000400000FFFF10B5401E9C
:101C6000B0F1807F01D3012010BD4FF0E02460610E
:101C70000F21601701F0EAFC0020A061072020611D
:101C8000002010BD7047704770B590F83C20012AC5
:101C900032D0012480F83C40022280F83D200368C5
:101CA0005A689D6822F070060A6832435A60134BE6
:101CB00002689A4214D0B2F1804F11D0104B9A4270
:101CC0000ED0104B9A420BD00F4B9A4208D00F4BBC
:101CD0009A4205D00E4B9A4202D00E4B9A4204D142
:101CE000496825F080031943916080F83D40002148
:101CF00080F83C10084670BD022070BD0000014015
:101D00000004004000080040000C004000040140B6
:101D1000004001400018004010B5040003D094F8C2
:101D20003D0010B107E0012010BD002084F83C0008
:101D3000204600F00DF8022084F83D00211D2068A7
:101D400001F086FA012084F83D00002010BD00005B
:101D500008B500680B49884212D10B48016841F070
:101D6000200101600068002200F020000090114670
:101D70003720FFF797FCBDE808403720FFF784BC09
:101D800008BD000000140040403802400168CA68E5
:101D900042F00102CA600068816801F0070106296B
:101DA00003D0016841F001010160002070477047D5
:101DB00070B50446006801694FF00005C943890702
:101DC00015D4C168C943890711D4E91E01610120F6
:101DD0002077206880698007204602D0FFF7E7FF60
:101DE00004E000F098F8204600F096F82577206887
:101DF0000169C943490717D4C168C943490713D4C6
:101E00006FF004010161022020772068806910F4DE
:101E1000407F204602D0FFF7CAFF04E000F07BF8C5
:101E2000204600F079F8257720680169C943090741
:101E300016D4C168C943090712D46FF008010161C3
:101E4000042020772068C0698007204602D0FFF771
:101E5000AEFF04E000F05FF8204600F05DF8257763
:101E600020680169C943C90617D4C168C943C906B6
:101E700013D46FF010010161082020772068C06939
:101E800010F4407F204602D0FFF791FF04E000F0FD
:101E900042F8204600F040F8257720680169C943E0
:101EA000C90708D1C168C943C90704D1891E0161A6
:101EB000204600F033F820680169C943090609D4B7
:101EC000C168C943090605D46FF08001016120464D
:101ED000FFF7D8FE20680169C943490609D4C168E3
:101EE000C943490605D46FF040010161204600F066
:101EF0002FF820680169C94389060BD4C168C9431A
:101F0000890607D46FF0200101612046BDE87040CA
:101F1000FFF7B9BE70BD70477047000010B501688B
:101F20000848006881420CD1074C00216170891E6D
:101F300001614FF480510548FEF7D0FE6069401CF6
:101F4000606110BDBC00002000000020000C0240B9
:101F50007047704770B5026804461068D1685369CD
:101F600010F00F0F52D003F0010501F490762E43CC
:101F70005FD0C20705D0CA0503D5E26B42F001026B
:101F8000E263420705D5DA0703D0E26B42F00202B2
:101F9000E263820705D5DA0703D0E26B42F0040260
:101FA000E263020707D501F020022A4303D0E26B67
:101FB00042F00802E263E26B002A33D0800604D5C7
:101FC000880602D5204601F030FA20684069E16BAE
:101FD000C0F38010090700D428B3204601F00EFAA0
:101FE0002068416949061AD5416921F040014161E3
:101FF000606BA0B11B490165606BFEF7F7FB002821
:1020000010D0606B016DBDE870400847830610D5A5
:102010008B060ED52046BDE8704001F006BA20467A
:10202000FFF797FF70BD2046FFF793FF0020E063A6
:1020300070BD030606D50B0604D52046BDE87040EA
:1020400001F0D2BA4006F3D54806F1D5D168204652
:1020500021F04001D160202184F8391000F060F9AE
:1020600070BD00002533000870B5040004D094F85A
:102070003900002510B106E0012070BD84F8385009
:10208000204600F023F8242084F839002068C16835
:1020900021F40051C160204601F012FA2068016964
:1020A00021F4904101612068416921F02A014161D8
:1020B0002068C16841F40051C160E563202084F8C4
:1020C000390084F83A00002070BD00002DE9F0438B
:1020D00087B0064614216846FEF7AAF836493068EC
:1020E000884266D135480024016841F480110160BE
:1020F000006800F48010059030481038016841F005
:1021000004010160016801F004010591016841F0DA
:10211000080101600068022500F0080005904FF4F6
:10212000805001274FF003084FF008098DE8A10304
:1021300069462348FEF7F6FC04208DE8A1036946B2
:102140002048FEF7EFFC214D1F484FF48068C7057B
:102150002860C5E90174C5E9034880156C61C5E9CB
:1021600006402C6228466C62FEF728FC08B1FEF798
:102170003CFB7563AE631448154DA830E5E80207D3
:102180004020A5E81101124845F81449AC61EC6102
:102190002C626C62FEF712FC08B1FEF726FB356379
:1021A000002211463520AE63FFF77CFA3520FFF799
:1021B0006BFA07B0BDE8F0830050004040380240A1
:1021C00000080240000C024010600240080200209B
:1021D00068020020F8B5044690F83A0020283CD167
:1021E000C1B3BAB394F83800012836D0012084F87E
:1021F0003800A162A2850025E563222084F83A0018
:10220000636B1748D863636B16481864636B164892
:10221000D864606B134605650846666B2168024604
:102220003046091DFEF734FC2068016841680091C2
:1022300084F83850C16841F48071C16020684169F8
:1022400041F0010141612068416941F04001416173
:102250000020F8BDFFE70120FBE70220F9E70000BE
:102260007F330008BB3300083533000810B5094937
:102270000068096888420BD1074C0020E07004F127
:10228000400000F0F1FE2071002801D101202070F3
:1022900010BD0000FC00002000000020704700007E
:1022A00070B5044690F83900202830D169B362B384
:1022B00094F8380001282AD0012084F838002162DF
:1022C000A284E2840025E563212084F83900236B91
:1022D0001048D863236B10481864236B0F48D864E8
:1022E000206B134605652668206B321DFEF7D0FB78
:1022F00021686FF04000086084F838502068416918
:1023000041F080014161002070BD012070BD0220BC
:1023100070BD0000C5330008F333000835330008F2
:1023200070477047FEE700000148FEF7EBBC000075
:102330006800002010B5806B90F83D20436B0021B1
:1023400003B1D963836B03B1D96303681C6824F4B8
:1023500080641C604185436B03B11965836B03B1D5
:10236000196503681C6824F001041C6090F83D4066
:102370002023602C0BD0282434EA02020FD080F8EE
:102380003D3080F83E1000BFFEF7E9FD10BD80F83B
:102390003D3080F83E100164FEF7B2FC10BD0268CB
:1023A000136843F0010313600268136843F4806309
:1023B0001360016380F83D40E6E770B5846B00254B
:1023C000616B01B1CD63A16B01B1CD63FEF720FA62
:1023D000022811D02068016821F4806101606585C0
:1023E000202084F83D0084F83E50206C40F010001E
:1023F00020642046FEF7B3FD70BD2DE9F041846BEB
:1024000094F83D2094F83E50E16A2068436823F434
:1024100040734360636B002003B1D863A36B03B1C7
:10242000D863212333EA02074FF022060CD036EAA4
:10243000020701D1202D07D094F83E20002A21D098
:10244000628D012A20D024E021684D6825F40065C2
:102450004D6060852820292A02D02A2A07D00CE066
:10246000236384F83D002046FFF7B3F805E02663B8
:1024700084F83D002046FFF7ABF82068416841F43E
:1024800040714160BDE8F0812268136823F48063E5
:1024900013602268536823F44073536011F5803F42
:1024A00006D0082904D0B1F12A4F01D0202904D147
:1024B00021680A6842F400720A6021684A6822F4BE
:1024C00080524A6021684A6822F400624A6060854E
:1024D000216C19B12046FEF742FDD3E7202184F894
:1024E0003D1094F83E1084F83E00402905D012209B
:1024F00020632046FEF7FAFDC4E720632046FEF77E
:10250000EFFFBFE770B5044690F83D0094F83E1029
:10251000102906D1222804D121680A6822F4006219
:102520000A60282131EA00024FF000054FF0200632
:1025300026D021684968090503D4602801D084F8B1
:102540003D60256384F83E5020684168090537D511
:10255000416821F400614160606B90F835203C498E
:10256000012A11D00165606BFEF740F938B320688D
:10257000016821F00101016084F83D60606B1CE09E
:10258000256384F83D10DFE7A06B0165A06BFEF7C3
:102590002DF9A0B120684169C943490605D40069F5
:1025A000616A0870606A401C60622068016821F0FE
:1025B0000101016084F83D60A06B016D884710E067
:1025C00094F83D10602910D04169C943490605D4EB
:1025D0000069616A0870606A401C60622046FEF70C
:1025E000BEFC206CC1071CD115E084F83D60256459
:1025F0004169C943490605D40069616A0870606A87
:10260000401C60622068016821F0010101602046E1
:10261000FEF776FBE5E7810703D4410701D4000705
:1026200004D52068416821F4E061416094F83D00E0
:10263000216C49070BD5282809D10648E06225639B
:1026400084F83D6084F83E502046FEF74DFD70BD95
:10265000352300080000FFFF01684A69D243520594
:102660000FD46FF480624A61002140F8301F2022AD
:1026700042738173026942F0040202610173012016
:1026800070470020704710B5C26A438D0168042B63
:1026900006D0438D032B08D0438D022B1DD012E0B2
:1026A0004A6822F480624A600CE04B6823F480633D
:1026B0004B60042A06D0022A04D001680A6822F47A
:1026C00080620A6001680969426A1170416A491CA6
:1026D0004162418D491E418510BD012A30D0102A2A
:1026E0002ED0042A30D0022A2ED00A6842F400727A
:1026F0000A6001680969426A1170416A491C4162B5
:10270000428D521E4285026812690A70416A491C54
:102710004162418D491E418501684A6822F4407238
:102720004A60202180F83D1090F83E200021402A88
:1027300080F83E100CD012210163FEF7D7FC10BDCB
:102740000A6822F48062D3E70A6842F48062CFE725
:102750000163FEF7C5FE10BD10B590F83D102229AB
:1027600014D1418D032912D901680969426A117097
:10277000416A491C4162418D491E4185418D0329B1
:1027800004D10068416821F48061416010BDC26AD3
:10279000022AFBD0012901D00029F7D101680A687B
:1027A00022F480620A6001684A6822F4E0624A60AA
:1027B00001680969426A1170416A491C4162418D90
:1027C000491E4185202180F83D1090F83E200021CF
:1027D000402A80F83E1004D012210163FEF786FCE7
:1027E00010BD0163FEF77CFE10BD0000F8B5044685
:1027F000C06A1E460D461746082807D0012805D096
:1028000010F5803F02D0206B122804D120680168A7
:1028100041F480710160134600224FF001112046FF
:10282000009600F0B3FA40B120680068C00502D5F8
:102830004FF4007020640320F8BD2069B0F5804F8C
:102840000ED00620216800EAD51040F0F0000861A3
:1028500033463A460B49204600F0CCFA78B902E0FC
:1028600005F0FE0000E0E8B2216808610549334642
:102870003A46891F204600F0BDFA0028DCD001202E
:10288000F8BD00000800010010B5C26A90F83D10C4
:10289000212907D090F83E1040290FD1BDE8104003
:1028A00000F06AB9418D51B1416A0268097811613D
:1028B000416A491C4162418D491E418510BD20235A
:1028C0000021082A13D0202A11D012F5803F0ED003
:1028D0000268546824F4E06454601122026380F8B2
:1028E0003E1080F83D3000BFFEF70CFC10BD0268C2
:1028F000546824F4E06454600268146844F400747A
:102900001460016380F83D3090F83E2080F83E105E
:10291000402AE9D1FEF7E5FD10BD000010B590F8A2
:102920003D1090F83E30C26A048DB4B1212903D025
:10293000402B11D122290FD1418DE1B390F83E10E7
:10294000402942D0416A026809781161416A491CF4
:102950004162418D491E418510BD2129E8D12023C6
:102960000021082A13D0202A11D012F5803F0ED062
:102970000268546824F4E06454601122026380F811
:102980003E1080F83D3000BFFEF7BCFB10BD026872
:10299000546824F4E06454600268146844F40074D9
:1029A0001460016380F83D3090F83E2080F83E10BE
:1029B000402AE9D100E002E0FEF793FD10BD006877
:1029C000416821F48061416010BDBDE8104000F015
:1029D000D3B8000078B590F83E50C26A036B90F807
:1029E0003D6000240168222E7AD1066D0EB9402D7B
:1029F00076D0056D1DB90569B5F5404F09D0458DF7
:102A000005B3468D384D012E0ED0438D022B3AD0A2
:102A10005DE04A698A6900920A6842F480720A603D
:102A2000016D491C016578BDAA4213D10A6822F4E0
:102A300080620A6001684A68120503D50A6822F4B8
:102A4000806216E04A698A6900920A6842F400725C
:102A50000A6039E0082A10D0202A0ED0122B0AD0A2
:102A6000042A03D0022A01D0102AE7D10A6842F4CE
:102A700080620A6024E0012AE0D00A6822F48062C1
:102A80000A600168DEE7042A21D0022A1FD0102A3A
:102A90001DD00B6823F480630B6001680B6843F45E
:102AA00000630B6001684B681B0509D5AA4212D070
:102AB000012A10D0082A0ED0102A0CD0202A0AD0C1
:102AC00001684A6989690091046578BD08E00B686E
:102AD00043F48063E5E74A6842F480524A60EFE7D6
:102AE000486988690090F0E70000FFFF90F83E1009
:102AF000402910D00169B1F5804F19D0016DA9B3FB
:102B0000016D012910D1416C5FF0F10201F44071B7
:102B100042EAD11106E0016D0029416C05D0C9B22D
:102B200041F0010100680161704701F0FE01F9E721
:102B300090F83D102129416C09D0C9B241F0010142
:102B400002681161416B29B1C96B49B902E001F01A
:102B5000FE01F5E7816B0029E6D0C96B0029E3D0BF
:102B60000068416841F4006141607047FFE7416CD3
:102B7000F02201F44071CBE7016DC1B1016D012973
:102B800023D0016D022911D190F83D10222923D0C4
:102B900090F83D10212909D1416A02680978116134
:102BA000416A491C4162418D491E41857047C16C93
:102BB0000129816C02D0C1F3072108E00268C9B283
:102BC0001161016D891C01657047816CC9B2026891
:102BD0001161016D491CF6E70068016841F48071DC
:102BE00001607047F8B590F83D60044600684168A0
:102BF00021F4E0614160206800254169009101688D
:102C000041F0010101602068016821F480610160E8
:102C100020684168090520D5474F222E48D02A2E2A
:102C200046D0616B096849686185618D19B1216C75
:102C300041F004012164416821F400614160606B4E
:102C4000FDF7E8FD012808D0606B0765606BFDF7B4
:102C5000CDFD10B1606B016D8847608D08B32068B1
:102C60004169C943490708D40069616A0870606A0C
:102C7000401C6062608D401E608520684169C943C8
:102C8000490608D40069616A0870606A401C606285
:102C9000608D401E6085608D18B1206C40F004008E
:102CA0002064206C00B32046BDE8F840FFF72ABC42
:102CB000A16B096849686185618D19B1216C41F08A
:102CC00004012164416821F400614160A06BFDF7BB
:102CD000A1FD0128C1D0A06B0765A06BFDF786FDA3
:102CE0000028BAD0A06BB6E72A2E06D1256328208B
:102CF00084F83D002046FEF76BFC94F83D10202040
:102D000028290DD0216B222901D0222E07D125633D
:102D100084F83D0084F83E502046FEF759FCF8BD8B
:102D20000649E162256384F83D0084F83E50204660
:102D3000FEF7DAF9F8BD0000352300080000FFFFB8
:102D400070B516460D4604460DE02046FFF784FC9C
:102D500008B1012070BD681C05D0FDF7CBFF801BBA
:102D6000A84207D835B120684069C0434007ECD479
:102D7000002070BD002044F8300F20216173A07343
:102D8000216941F0200121612073E2E72DE9F0473C
:102D90001E4690460D460446C1F30747DDF82090D5
:102DA00008E0701C06D0FDF7A5FFA0EB0900B042BB
:102DB0000FD876B12068012F18D0806925EA00006D
:102DC0000004000C14D000214145EAD00020BDE8E9
:102DD000F087002044F8300F20216173A07321692F
:102DE00041F02001216120730120F0E74069E5E70F
:102DF0000121E9E72DE9F0479A4691460E4604463F
:102E000000254FF02008C1F3074725E020684069FE
:102E1000C043400514D42068016841F4007101608A
:102E200021686FF480604861256384F83D8084F8F0
:102E30003E50206C40F00400206484F83C501FE0B9
:102E4000B9F1FF3F08D0FDF755FFA0EB0A01494556
:102E50000CD8B9F1000F09D02068012F13D0806978
:102E600026EA00000004000C0BD0CFE744F8305FE6
:102E700084F80D80A573206940F02000206125733F
:102E80000120BDE8F0874069EAE770B516460D46B7
:102E900004460DE02046FFF7DFFB08B1012070BDBE
:102EA000681C05D0FDF726FF801BA84207D835B166
:102EB00020684069C0430006ECD4002070BD0020AB
:102EC00044F8300F20216173A073216941F0200183
:102ED00021612073E2E70000154808B5016841F45C
:102EE000001101600068002200F4001000901146FB
:102EF0000B20FEF7D7FB0B20FEF7C6FB0022114686
:102F00001020FEF7CFFB1020FEF7BEFB002211467B
:102F10001120FEF7C7FB1120FEF7B6FB0022114679
:102F20002F20FEF7BFFBBDE808402F20FEF7ACBB0B
:102F3000303802402DE9F04186B014216846FDF793
:102F400077F926480024016841F08001016001689A
:102F500001F080010591016841F001010160016803
:102F600001F001010591016841F00801016001686B
:102F700001F008010591016841F004010160016858
:102F800001F004010591016841F00201016000684F
:102F9000134F00F002000590002202213846FDF791
:102FA000A4FEDFF84080BE14002231464046FDF703
:102FB0009CFE022000900125CDE901546946384667
:102FC0000394FDF7AFFD0096CDE9015469464046F4
:102FD0000394FDF7A7FD06B0BDE8F081303802404C
:102FE00000000240000C02400E4810B50C49016080
:102FF0000D49416000214FF480428160C0E9031215
:1030000041618161C1610162FDF7AAFF00220121D6
:103010001F20FEF747FBBDE810401F20FEF734BB22
:103020000054004068000020801A0600FEE7704748
:103030000B4A10B5532313706523537001290DD02B
:103040002D211172452151726E2191720021541867
:10305000435C491CA3700629F9DB10BD2B21F0E766
:103060003C0100207047000038B504465320207012
:10307000652060704520A0716E20E071A078124D2F
:10308000542804D0522816D0502816D019E0E078E1
:103090008DF8000020798DF801000221684600F0CB
:1030A000F5FB627990420CD12179E07800F03AFB8F
:1030B00085ED0C0B03E0012000E00020A87000204B
:1030C00038BD012038BD00000000002010B553ECD1
:1030D000112B2DED048BB0EE438AF0EE638AB0EE37
:1030E000429AF0EE629A51EC100BFDF741FA01D1D1
:1030F000012400E0002453EC182B51EC190BFDF7D0
:1031000037FA01D1012000E0002004420B480FD023
:103110000169491C016104290CDD002202210848D3
:10312000FDF7E3FDBDEC048BBDE81040FEF7ECBA03
:1031300000210161BDEC048B10BD000000000020E7
:103140000000024038B56420FDF7DAFC6424022355
:10315000104A882110480094FEF786F86420FDF795
:10316000CFFC0C4A0223921E88210B480094FEF7E4
:103170007BF86420FDF7C4FC064A0223921C8821D8
:1031800005480094FEF770F8BDE838406420FDF76C
:10319000B7BC000007000020680000207047FEF761
:1031A00019BA000030B593B030216846FDF740F8F9
:1031B00014210CA8FDF73CF819480025016841F0DE
:1031C00080510160006800F080501190154801683E
:1031D00041F4804101600068022400F480401190B5
:1031E00001200090000401908001CDE906400820F4
:1031F00008904FF4A870CDE9090404200B906846AC
:10320000FEF77EFB0CA90F2081E831004FF4A0509F
:103210000F90109005210CA8FEF788FA13B030BD6E
:1032200040380240007000400548016841F47001D8
:10323000016003494FF0006080390860704700006A
:1032400088ED00E00148FEF7B3BD0000BC0000209F
:10325000F0B50268254C264D264E274F274B4FF0E0
:10326000804CA04209D0604507D0A84205D0B042AA
:1032700003D0B84201D0984204D122F0700E4A68BF
:1032800042EA0E02A0421BD0604519D0A84217D0D6
:10329000B04215D0B84213D0984211D0184DA84270
:1032A0000ED0184DA8420BD0174DA84208D0174D8C
:1032B000A84205D0164DA84202D0164DA84203D10F
:1032C00022F44075CA682A434D6922F080022A43DD
:1032D00002608A68C2620A688262A04201D0984293
:1032E00001D10969016301214161F0BD0000014084
:1032F0000004004000080040000C004000040140B1
:1033000000400140004401400048014000180040D6
:10331000001C0040002000400148FEF71BBE0000DA
:10332000FC00002010B5806B0021C185C184FEF730
:1033300010FE10BD70B5846B2068406994F8391098
:10334000C0F3C0100025212904D118B1E58420461E
:1033500000F062F82068406994F83A10C0F38010D9
:10336000222904D118B1E585204600F047F8E06B2A
:1033700040F01000E0632046FEF7EBFD70BD10B595
:103380000146806B09680968C90513D40021C1850D
:103390000168CA6822F48072CA6001684A6922F032
:1033A00001024A6101684A6922F040024A61202113
:1033B00080F83A10FEF75AFF10BD10B5806BFEF78B
:1033C0006DFF10BD10B50146806B09680968C9051D
:1033D0000CD40021C18401684A6922F080024A614C
:1033E0000068C16841F04001C16010BDFEF798FF60
:1033F00010BD10B5806BFEF794FF10BD0168CA6860
:1034000022F49072CA6001684A6922F001024A619E
:10341000202180F83A1070470168CA6822F0C00283
:10342000CA60202180F83910704710B590F83A1022
:10343000222901D0022010BD8168B1F5805F11D032
:103440000169002901681FD0496801F07F03816A82
:103450004A1C82620B70C18D491E0904090CC1858A
:1034600018D02BE00269816A002A0268526805D0F0
:10347000D2B20A80816A491C8162ECE7C2F3080279
:103480000A80816A891CF7E74A68816A4B1C83625B
:103490000A70E0E70168CA6822F02002CA60016889
:1034A000CA6822F48072CA6001684A6922F0010287
:1034B0004A61202180F83A10FEF7D8FE002010BDA6
:1034C0002DE9F041044600680169E26821F44051A9
:1034D000114301612169A068E269084361691143F0
:1034E00008432168CA6849F20C639A430243CA60E0
:1034F00020684169A26921F4407111434161E0698A
:10350000192764253226B0F5004F354A3549206821
:103510004FF0000806D0884201D0904236D1FEF725
:10352000AFF935E0884201D0904202D1FEF7A8F908
:1035300001E0FEF795F961684A18A0FB070148EB26
:103540000803FCF73DFE0146B0FBF5F00201B1FBBC
:10355000F5F06FF01803584301EB800006EBC00054
:10356000B0FBF5F000F0F80002EB4002B1FBF5F023
:10357000584301EB800006EBC000B0FBF5F000F013
:103580000700216810448860BDE8F081FEF768F903
:1035900061688B0F8A00A0FB0701FCF711FE014652
:1035A000B0FBF5F06FF01802504301EB800006EB22
:1035B0000010B0FBF5F000F0F002B1FBF5F002EB0B
:1035C0000012B1FBF5F06FF01803584301EB8000D7
:1035D00006EB0010B0FBF5F000F00F00D1E70000A3
:1035E000001401400010014090F83910212901D049
:1035F000022070478168B1F5805F016A0BD04A1CD8
:103600000262026809785160C18C491E0904090CE4
:10361000C1840ED017E009880268C1F30801516027
:1036200001690029016A02D0491C0162ECE7891C8A
:10363000FBE70168CA6822F08002CA600068C168BE
:1036400041F04001C16000207047FEE70907090E04
:10365000002804DB00F1E02080F80014704700F03F
:103660000F0000F1E02080F8141D704702E008C848
:10367000121F08C1002AFAD170477047002001E0EC
:1036800001C1121F002AFBD17047000070B50C4623
:103690002DED028B82B005468DF800008DF80110EB
:1036A00016460221684600F0F1F8174B864227D1F2
:1036B00093ED120B204683ED140BFCF74CFF41EC0D
:1036C000180B2846FCF747FF9FED101B53EC112BFE
:1036D000FCF760FE53EC182BFCF7B5FD9FED0D1BBE
:1036E00053EC112BFCF756FE9FED0C1B53EC112BEA
:1036F000FCF7C2FE41EC100B02B0BDEC028B70BDBA
:1037000093ED140BF8E7000000000020000000001B
:103710000000704000000000000059400000000060
:10372000E0FFEF4070B50C462DED028B82B00546F0
:103730008DF800008DF8011016460221684600F051
:10374000A5F81A4B86422DD193ED080B204683ED48
:103750000A0BFCF700FF41EC180B2846FCF7FBFEB8
:103760009FED131B53EC112BFCF714FE53EC182B9D
:10377000FCF769FD9FED101B53EC112BFCF70AFEC3
:103780009FED0F1B53EC112BFCF776FE9FED0E1BEC
:1037900053EC112BFCF7F8FD41EC100B02B0BDEC23
:1037A000028B70BD93ED0A0BF8E7000000000020CB
:1037B00000000000000070400000000000E06540D4
:1037C00000000000E0FFEF400000000000804640E5
:1037D0002DE9F041294D0E462DED048BB0EE408AC7
:1037E000F0EE608A95ED0E0B0446B0EE419AF0EED5
:1037F000619A234F53EC102B51EC180BFCF7B8FED9
:1038000014D29FED200B14B1012C21D00EE0012E1B
:103810001ED006E053EC182B51EC190BFCF7A8FE58
:1038200004D2002202213846FDF75FFA95ED0E0B17
:1038300051EC180B53EC102BFCF7B2FE19D8BDEC71
:10384000048B38460022BDE8F0410221FDF74DBA55
:1038500053EC102B51EC190BFCF796FD53EC182B85
:10386000FCF79EFED6D2012202213846FDF73DFA32
:10387000D0E7BDEC048BBDE8F08100000000002023
:10388000000002409A9999999999B93F30B502463A
:10389000FF2000290FD0312412F8013B58400823A3
:1038A000050602D584EA400000E04000C0B25B1E7D
:1038B000F6D1491EF0D130BD1CB5FDF793FEFFF7E0
:1038C00071FCFFF737FBFFF707FBFFF78DFB0025C8
:1038D000434C009541480195206042F2CF00C4E975
:1038E000010542F20F70E0608020A0612046FEF7E3
:1038F00013FA0095694620460195FEF7C5F921683F
:10390000A81E086104F14000364901604FF41651C9
:10391000C0E901150C21C560C0E904518561C5618C
:10392000FEF7A2FBFFF70EFC2046FEF72FFA082257
:103930002D4904F14000FEF74DFC2B4E4FF4FA7771
:10394000283EA6F11804284A25480223353A882142
:103950005438FDF71FFD0A20FDF7D2F8224A20480F
:103960000623283A88215438FDF7D8FB3846FDF75E
:10397000C7F8B27871783078FFF7D4FE84ED080B81
:1039800072793179F078FFF781FE84ED120BB0EE99
:10399000402AF0EE602A94ED143B94ED0A1B94ED5E
:1039A000080BFFF793FB21780F482838FFF740FBFF
:1039B0000B490B228031A1F14000FEF771FC25700C
:1039C00094ED0C1B94ED080BA178E078FFF700FF55
:1039D00060780128FCD001206070B4E7001400403A
:1039E000BC000020005000404000002000061016DF
:1039F0000006101600000000000000000102030491
:103A00000607080900000000010203042C3A000820
:103A100000000020680000006C360008943A00089E
:103A200068000020600600007C36000800010001EC
:103A300000302A30932236E0000000000000000031
:103A40000000000000000000000000000000000076
:103A50000000594000000000000059400000000034
:103A600000004940000000000080514000000000BC
:103A70000000000000000000000000000000000046
:103A80000000000001000000100000000000000025
:043A90000024F4001A
:040000050800018965
:00000001FF
